:10000000000000308A00D528F01B2732F01C09328E
:100010007F080C3C031805327D08F7007E08F800C5
:100020001B32701C0D327F087B02003003197F08E1
:10003000F7007F087C02003003197F08F8000C32BB
:100040007F087B027F08031C0301F7007F087C0206
:100050007F08031C0301F800AC2141019D181532F3
:10006000701B093245309D0070171B08F3071C08F0
:100070004001A33D083241309D0070131B08F40776
:100080001C084001A43D41019D14711C1E320E301C
:100090007F02031D1932FF014001B008031D0C321D
:1000A000FF30B000F301A301F401A401FD01FE0142
:1000B0000130FB00FC000832B00B0632400123087F
:1000C000A5002408A600711068320D307F02031DC0
:1000D0003B3240012508F3020301A33BA31F023278
:1000E00003010632A336F30CA336730C031DFF3055
:1000F000F900F301A30193217A08FB007908750246
:10010000031804327908F5004001A10140012608D6
:10011000F4020301A43BA41F023203010632A436F9
:10012000F40CA436740C031DFF30F900F401A40193
:1001300093217A08FC0079087602031804327908C2
:10014000F6004001A20129320E307F02031D0C325D
:10015000FF017508F90093217A08FD007608F9007F
:1001600093217A08FE0019320C307F02031D1532EC
:1001700040304001A007031C1032A10B06320130B1
:10018000A100F50803190132F503A20B0632013074
:10019000A200F60803190132F603FF0A0230F20743
:1001A0000318F0164E018C120900203084008501DE
:1001B0008001840A80300402031CD82809305001D1
:1001C0008C001F227E01B901CF01B915B91440017D
:1001D00098019A017E01B811B810813052018C004B
:1001E00064000C1FFE33413041019D00E3309E004E
:1001F0009C019B0141304B019F00FF309D009E17E9
:100200004E0196168B17F01740012E08F700F800E4
:10021000AC2140010C302E0203180A32AE0A0A301B
:10022000AF00F01EFE33F0126400AF0BFA33EC3374
:100230001830AF00F01EFE33F0126400AF0BFA333B
:10024000F013F01E2129F012640052214001A71C76
:1002500004320130F006A7108F214001A71D04329F
:100260000C30F006A7118F214001A71E0432023086
:10027000F006A7128F214001271F0532F017013029
:10028000F700F800AC214001A71F0432F0137114ED
:10029000A7138F214001AC0803190332AC0B0132C4
:1002A0003522212940018C190D32400127180332D3
:1002B000A80B16322714A90803190232A903103219
:1002C00027150E324001271C06322710271DA714C0
:1002D0002719A715271140010730A800FA30A900F7
:1002E00040018C180D324001271A0332AA0B163236
:1002F0002716AB0803190232AB03103227170E3250
:100300004001271E06322712271FA716271BA717F3
:10031000271340010730AA00FA30AB000800FF3075
:100320004001AC00080081308500A03084000C3012
:10033000FA001200790203180232FA0BFA330800AD
:10034000FE00E200CA00B4008F00710050003300CC
:100350002000100008000400701E073278084001D9
:10036000AD007708F8002D08F70077080C3C03185B
:1003700002320C30F700701D033277080D3CF70095
:1003800078080C3C031802320C30F800F01D0332E0
:1003900078080D3CF8004001353092043C3094045C
:1003A0004001CA309805C3309A057708E3219804C4
:1003B0007808F2219A047708012240019205780812
:1003C0001022940508000B00003404340434043473
:1003D00001340134013420342034203410341034FA
:1003E000103400340B000034203420342034103416
:1003F0001034103408340834083404340434043419
:1004000000340B00FF34FA34DB34EB34FA34DE34DE
:10041000EE34DB34DE34CF34EB34EE34CF34FF341F
:100420000B00FF34CF34D734DB34CF34E734EB3434
:10043000D734E734F334DB34EB34F334FF34500196
:10044000FD309A0007309B001E131E141C081F3934
:10045000F0009A0A1E141C084001A50050019A0AD7
:100460001E141C084001A6000800500107309B0024
:10047000FD309A001E131E161E1553221E111E1546
:100480009E1670089C0053229A0A400125085001CC
:100490009C0053229A0A9E124001260850019C009B
:1004A00053221E1108008B138B1B532A55309F00BB
:0A04B000AA309F009E148B1708006D
:060FFA0002000A000A00DB
:020000040001F9
:0A000E009C1FBC3DBF07EF1DFF3F24
:00000001FF
