:10000000000000308A00D528F01B2732F01C09328E
:100010007F080C3C031805327D08F7007E08F800C5
:100020001B32701C0D327F087B02003003197F08E1
:10003000F7007F087C02003003197F08F8000C32BB
:100040007F087B027F08031C0301F7007F087C0206
:100050007F08031C0301F800B32141019D181532EC
:10006000701B093245309D0070171B08F3071C08F0
:100070004001A33D083241309D0070131B08F40776
:100080001C084001A43D41019D14711C1E320E301C
:100090007F02031D1932FF014001B008031D0C321D
:1000A000FF30B000F301A301F401A401FD01FE0142
:1000B0000130FB00FC000832B00B0632400123087F
:1000C000A5002408A600711068320D307F02031DC0
:1000D0003B3240012508F3020301A33B031802321F
:1000E00003010632A336F30CA336730C031DFF3055
:1000F000F900F301A3019A217A08FB00790875023F
:10010000031804327908F5004001A10140012608D6
:10011000F4020301A43B0318023203010632A436A1
:10012000F40CA436740C031DFF30F900F401A40193
:100130009A217A08FC0079087602031804327908BB
:10014000F6004001A20129320E307F02031D0C325D
:10015000FF017508F9009A217A08FD007608F90078
:100160009A217A08FE0019320C307F02031D1532E5
:1001700040304001A007031C1032A10B06320130B1
:10018000A100F50803190132F503A20B0632013074
:10019000A200F60803190132F603FF0A0230F20743
:1001A0000318F0164E018C120900203084008501DE
:1001B0008001840A80300402031CD82809305001D1
:1001C0008C0026227E01B901CF01B915B914400176
:1001D00098019A017E01B811B810823052018C004A
:1001E000413041019D00E3309E009C019B01413064
:1001F0004B019F00FF309D009E174E0196168B17F6
:10020000F01740012E08F700F800B32140010C3030
:100210002E0203180A32AE0A0A30AF00F01EFE3377
:10022000F0126400AF0BFA33EC331830AF00F01E5D
:10023000FE33F0126400AF0BFA33F013F01E1E29E8
:10024000F012640059214001A71C04320130F0066D
:10025000A71096214001271D0532F0170130F70045
:10026000F800B3214001A71D0532F0130C30F00651
:10027000A71196214001A71E04320230F006A712F2
:1002800096214001271F0532F0170C30F700F800C7
:10029000B3214001A71F0532F0131030F006A71359
:1002A00096214001AC0803190332AC0B01323C2209
:1002B0001E2940018C190D32400127180332A80B6A
:1002C00016322714A90803190232A9031032271580
:1002D0000E324001271C06322710271DA7142719AC
:1002E000A715271140010730A800FA30A9004001E6
:1002F0008C180D324001271A0332AA0B163227162A
:10030000AB0803190232AB03103227170E3240013B
:10031000271E06322712271FA716271BA7172713EA
:1003200040010730AA00FA30AB000800FF3040015E
:10033000AC00080081308500A73084000C30FA0042
:100340001200790203180232FA0BFA330800FE0099
:10035000E200CA00B4008F0071005000330020009A
:10036000100008000400701E073278084001AD003C
:100370007708F8002D08F70077080C3C03180232C4
:100380000C30F700701D033277080D3CF700780839
:100390000C3C031802320C30F800F01D03327808D0
:1003A0000D3CF8004001353092043C30940440018B
:1003B000CA309805C3309A057708EA21980478086E
:1003C000F9219A047708082240019205780817223B
:1003D000940508000B000034043404340434013460
:1003E00001340134203420342034103410341034DB
:1003F00000340B0000342034203420341034103406
:100400001034083408340834043404340434003418
:100410000B00FF34FA34DB34EB34FA34DE34EE34E0
:10042000DB34DE34CF34EB34EE34CF34FF340B0026
:10043000FF34CF34D734DB34CF34E734EB34D73424
:10044000E734F334DB34EB34F334FF345001FD3064
:100450009A0007309B001E131E141C081F39F00061
:100460009A0A1E141C084001A50050019A0A1E1485
:100470001C084001A6000800500107309B00FD3019
:100480009A001E131E161E155A221E111E159E16A8
:1004900070089C005A229A0A4001250850019C00CD
:1004A0005A229A0A9E124001260850019C005A22A4
:1004B0001E1108008B138B1B5A2A55309F00AA303F
:0804C0009F009E148B17080039
:060FFA0002000A000A00DB
:020000040001F9
:0A000E009C1FBC3DBF07EF1DFF3F24
:00000001FF
